:020000040800F2
:1000000020360020C10100089B1E0008171D0008B3
:10001000991E000899030008D92D0008000000006F
:10002000000000000000000000000000C92A0008D5
:100030009B030008000000009D1E0008CB2A00085A
:10004000DB010008DB010008DB010008DB01000820
:10005000DB010008DB010008DB010008DB01000810
:10006000DB010008DB010008DB010008DB01000800
:10007000DB010008DB010008DB010008DB010008F0
:10008000DB010008DB010008DB010008DB010008E0
:10009000DB010008DB010008DB010008DB010008D0
:1000A000DB010008DB010008DB010008DB010008C0
:1000B000DB010008DB010008DB010008DB010008B0
:1000C000DB010008DB010008DB010008DB010008A0
:1000D000DB010008DB010008DB010008DB01000890
:1000E000DB010008DB010008DB010008DB01000880
:1000F000DB010008DB010008DB010008DB01000870
:10010000DB010008DB010008DB010008DB0100085F
:10011000DB010008DB010008DB010008792B000887
:10012000DB010008DB010008DB010008DB0100083F
:10013000DB010008DB010008DB010008DB0100082F
:10014000DB010008DB010008DB010008DB0100081F
:10015000DB010008DB010008DB010008DB0100080F
:10016000DB010008DB010008DB010008DB010008FF
:10017000DB010008DB010008DB01000800000000D3
:10018000DB010008DB010008DB010008DB010008DF
:10019000DB010008DB010008DB010008DB010008CF
:1001A000DB010008DB010008DB010008DFF80CD0F0
:1001B00000F090F800480047BD45000820360020B8
:1001C0000648804706480047FEE7FEE7FEE7FEE7F1
:1001D000FEE7FEE7FEE7FEE7FEE7FEE7692B000825
:1001E000AD0100082DE9F05F0546002092469B46D0
:1001F00088460646814640241BE02846414647463D
:10020000224600F057F853465A46C01A914110D37F
:1002100011461846224600F03EF82D1A67EB0108F9
:100220004F4622460120002100F035F817EB000967
:100230004E41201EA4F10104DFDC484631462A4627
:100240004346BDE8F09FD2B201E000F8012B491E01
:10025000FBD270470022F6E710B513460A46044663
:100260001946FFF7F0FF204610BD30B50B4601469A
:1002700000202022012409E021FA02F59D4205D345
:1002800003FA02F5491B04FA02F52844151EA2F1EF
:100290000102F1DC30BD202A04DB203A00FA02F131
:1002A000002070479140C2F1200320FA03F3194364
:1002B00090407047202A04DB203A21FA02F0002106
:1002C000704721FA02F3D040C2F120029140084366
:1002D00019467047064C074D06E0E06840F0010300
:1002E00094E8070098471034AC42F6D3FFF762FF5A
:1002F000B44C0008D44C00080146014800F0AABEE6
:100300002800002010B5044800F0B6FE042801D0F3
:10031000012010BD002010BD2800002010B500F005
:1003200015F8012801D0012010BD074800F0B4FEE7
:10033000044634B94FF40061034800F05FFD00B19A
:100340000124204610BD00002800002008B501202F
:1003500000909DF8000008BD38B5002400931346B6
:100360000A460146034800F04DFF00B10124204633
:1003700038BD00002800002038B500240093134643
:100380000A460146034801F04FF800B10124204617
:1003900038BD000028000020FEE7704772B6FEE777
:1003A000002200F001B8000030B5044601200D4BDA
:1003B0005D7A002D14D1587A1D54587A03EB8000D1
:1003C00044605C7A03F108002254587A421C5A7245
:1003D000303008703A2048702F208870CD7000208F
:1003E00030BD00001422002070B5044600F012F960
:1003F0000546601C02D004480078044400F00AF965
:10040000401BA042FAD370BD000000202DE9F84F38
:100410000022DFF8B0914FF0010809F1040A032728
:100420004FF00F0C0AF1040B08FA02F50B682B4091
:10043000AB426ED10C7904F00304012C01D0022CE4
:1004400015D18668540007FA04FE26EA0E06D1F894
:100450000CE00EFA04FE4EEA060EC0F808E044680E
:10046000AC430D79C5F300159540254345600C79E3
:10047000E443A40708D0C568540007FA04F6B5435E
:100480008E68A6402E43C6600C7904F00304022C4B
:1004900011D1D40800EB8406356A5407E40E0CFA37
:1004A00004FE25EA0E05D1F810E00EFA04FE4EEA2D
:1004B000050EC6F820E00568540007FA04F6B543B7
:1004C0000E7906F00306A6402E4306604C6814F42D
:1004D000403F71D03C4C256845F480452560246838
:1004E00004F480440094394C22F003052E19D6F808
:1004F000085894074FEA147E0CFA0EF4A543344CC6
:10050000A04201D100242EE0324CA04202D10124AD
:1005100029E051E0304CA04201D1022423E02F4CCD
:10052000A04201D103241EE02D4CA04201D104249D
:1005300019E02C4CA04201D1052414E02A4CA04221
:1005400001D106240FE0294CA04201D107240AE082
:10055000274CA04201D1082405E0264CA04201D13D
:10056000092400E00A2404FA0EF42C43C6F80848D3
:10057000D9F800409C434D68ED0300D51C43C9F8F1
:100580000040DAF800409C434D68AD0300D51C43A1
:10059000CAF80040DBF800409C434D68ED0200D5EE
:1005A0001C43CBF80040074D0C352C689C434E682B
:1005B000B60200D51C432C60521C102AFFF434AF45
:1005C000BDE8F88F003C0140443802400030014053
:1005D000000002400004024000080240000C0240FB
:1005E000001002400014024000180240001C0240AB
:1005F00000200240002402400069084201D001208E
:10060000704700207047002A01D0816170470904BB
:100610008161704701488068704700000000002039
:100620000248816802781144816070470000002010
:1006300010B50B48016841F400710160016841F494
:1006400080610160016841F480710160032000F065
:1006500089F80F2000F006F800F03EF8002010BDE9
:10066000003C024010B588B001460022372000F05F
:1006700059F8372000F048F800241348016841F089
:1006800020010160006800F02000019002A903A889
:1006900000F05AF900F07CF940000C49B0FBF1F190
:1006A000491E0C480A4A026040F2E732C2604160CB
:1006B0000461846001F036F910B1012008B010BD6A
:1006C000044801F055F9F9E74038024040420F0074
:1006D000001400404801002008B50A48016841F4B0
:1006E00080410160006800F4804000900548001FD0
:1006F000016841F080510160006800F08050009076
:1007000008BD000044380240002809DB00F01F0249
:10071000012191404009800000F1E020C0F8001163
:1007200070470000F0B40D460D4B1B68C3F3022365
:10073000C3F10704042C00D90424191D072901D290
:10074000002300E0DB1E012606FA04F1491E2940C1
:1007500099409E40761E16403143F0BC02F002BD27
:100760000CED00E000F00701054A10684FF6FF03AA
:10077000184040EA01200349084310607047000018
:100780000CED00E00000FA052DE9F8431848016877
:1007900041F080510160006800F080500090DFF867
:1007A00054800127C8F84070FFF734FF05464FF426
:1007B0007A76114C07E0FFF72DFF401BB04202D9BB
:1007C0000320BDE8F8836068C003F4D5C8F844701E
:1007D000FFF720FF054606E0FFF71CFF401BB04275
:1007E00001D90320EDE760688003F5D50020E8E734
:1007F0004038024000000E42007000402DE9F047F2
:1008000004460D46002C13D0DFF82891D9F80000DB
:10081000EFB200F00F00A8420CD289F80070D9F8AE
:10082000000000F00F00A84204D00120BDE8F087CE
:100830000120FBE72068404E810712D5400703D511
:10084000306840F4E05030602078000703D530680D
:1008500040F4604030603068A16820F0F000084348
:1008600030602078C00731D03349606808390128EA
:1008700008D002280BD0032809D0096889070BD4B7
:100880000120D3E70968890306D40120CEE709686F
:10089000890101D40120C9E7316821F00301014336
:1008A0003160FFF7B7FE804641F2883A07E0FFF774
:1008B000B1FEA0EB0800504501D90320B6E730682F
:1008C000616800F00C00B0EB810FF0D1D9F80000A6
:1008D00000F00F00A84209D989F80070D9F800008B
:1008E00000F00F00A84201D001209FE720784007C8
:1008F00005D53068E16820F4E05008433060207886
:10090000000706D53068216920F4604040EAC10044
:10091000306000F05DF83168084AC1F30311515CA2
:10092000C8400749086007480068FFF79BFE0020A1
:100930007CE70000003C024008380240864C00087A
:100940000C000020040000200F2202600B4A1368F4
:1009500003F003034360136803F0F003836013683C
:1009600003F4E053C360126802F46042D2080261EB
:100970000348006800F00F00086070470838024024
:10098000003C024001480068704700000C00002055
:1009900000B5FFF7F7FF04490968044AC1F3822153
:1009A000515CC84000BD000008380240964C000869
:1009B00000B5FFF7E7FF04490968044AC1F3423173
:1009C000515CC84000BD000008380240964C000849
:1009D00010B51748006810F00C01164816D0164BD9
:1009E000042912D0082911D1114C241F216801F0CB
:1009F0003F02216849020AD52068C0F38810A0FB95
:100A000003010023FFF7EEFB09E0184610BD216843
:100A10000023C1F38811A1FB0001FFF7E3FB21686C
:100A2000C1F30141491C4900B0FBF1F010BD0000C9
:100A3000083802400024F40040787D012DE9F84F89
:100A40000446002C13D02078DFF8A083C007A8F15B
:100A5000040556D008F104000168C1F381010129A1
:100A60000CD00068C0F38100022803D00DE0012003
:100A7000BDE8F88FD8F80000400206D5286880034A
:100A80003FD5606870BB0120F2E76068B0F5803F39
:100A900010D0B0F5A02F12D0286820F48030286044
:100AA000286820F4802028606068E0B1FFF7B2FD7C
:100AB000064614E0286840F480302860F4E728688F
:100AC00040F480202860286840F480302860EBE7FC
:100AD000FFF7A0FD801B642801D90320C8E7286820
:100AE0008003F5D50DE0FFF795FD064606E0FFF71C
:100AF00091FD801B642801D90320B9E72868800391
:100B0000F5D42078BA4F80074FF0000948D5B74890
:100B1000001D016811F00C0F08D00068C0F38100BF
:100B2000022813D1D8F8000040020FD428688007AB
:100B300004D5E068012801D0012099E728682169DF
:100B400020F0F80040EAC100286029E0E068B8B170
:100B500001203860FFF75EFD064606E0FFF75AFD0C
:100B6000801B022801D9032082E728688007F5D579
:100B70002868216920F0F80040EAC10028600FE0F1
:100B8000C7F80090FFF746FD064606E0FFF742FD76
:100B9000801B022801D903206AE728688007F5D462
:100BA0002078000729D5DFF844A2924861690AF14C
:100BB000700A89B101210160FFF72CFD064606E0AD
:100BC000FFF728FD801B022801D9032050E7DAF83F
:100BD00000008007F4D510E0C0F80090FFF71AFD80
:100BE000064606E0FFF716FD801B022801D9032008
:100BF0003EE7DAF800008007F4D42078400778D583
:100C00004FF0000A79483C300068C0000BD47748A8
:100C10003C30016841F080510160006800F0805074
:100C200000904FF0010ADFF8D0B1DBF80000C005FA
:100C300014D4DBF8000040F48070CBF80000FFF71C
:100C4000E9FC064606E0FFF7E5FC801B022801D917
:100C500003200DE7DBF80000C005F4D5634EA06863
:100C60006C3601280FD0052812D0306820F0010022
:100C70003060306820F004003060A068F8B1FFF701
:100C8000C9FC834617E0306840F001003060F4E7AB
:100C9000306840F004003060306840F0010030609F
:100CA000EBE7FFF7B7FCA0EB0B0141F28830814284
:100CB00001D90320DCE630688007F2D510E0FFF7A9
:100CC000A9FC834609E0FFF7A5FCA0EB0B0141F26C
:100CD0008830814201D90320CAE630688007F2D407
:100CE000BAF1010F05D141483C30016821F0805133
:100CF0000160A069C0B33D49091D09684FF0FF3686
:100D0000C1F38101022946D0022805D0C7F86090BE
:100D1000FFF780FC04463AE0C7F86090FFF77AFCE2
:100D2000814607E0FFF776FCA0EB0900022801D915
:100D300003209DE628688001F4D4D4E90701084324
:100D4000616AA26A890106EB520241EA0241084344
:100D500094F82C1040EA0160C8F8000001203866C1
:100D6000FFF758FC044607E03DE0FFF753FC001B8B
:100D7000022801D903207BE628688001F5D532E0FE
:100D8000FFF748FC001B022801D9032070E6286801
:100D90008001F5D427E0012823D0D8F80000E269CB
:100DA00000F4800191421AD1226A00F03F01914281
:100DB00015D147F6C071626A0140B1EB821F0ED1B6
:100DC000A26A00F4403106EB5202B1EB024F06D1A9
:100DD00094F82C1000F07060B0EB016F03D001208C
:100DE00046E6012044E6002042E6000004380240C6
:100DF00000004742800E4742007000402DE9F0415C
:100E00008AB004460D460026032084F83400606C46
:100E100003281ED0B5F5805F08D0B5F5006F0AD065
:100E200085B1A06B40F00060A06316E0A06B40F0BD
:100E30008050A06311E0204601F030FDA16B01431A
:100E4000A1630AE0204601F000FDA16B0143A1630C
:100E500003E0A06B40F08050A063A06B174F4FF0F1
:100E6000010828B12068876384F83480012613E0E4
:100E700060680490A0680590E06806900795606936
:100E80000890A069099007A807C88DE8070004A981
:100E900020680EC901F01FF84FF40071206801F0BE
:100EA00083F828B121688F63A16B0143A1630126F8
:100EB00084F834800AB03046BDE8F081FF05400078
:100EC000F0B550F8642F920F0A700268C2F3836283
:100ED0004A700268C2F301628A700268120CCA701A
:100EE0000288120A0A7102784A714268120DCA8099
:100EF0004268C2F303420A728288C2F3C0324A7265
:100F00008288C2F380328A728288C2F34032CA7207
:100F10008288C2F300320A7300264E7350F8203CD8
:100F2000643801244FF40075002B0CD0012B3AD00B
:100F3000026847499163816B41F08051816380F879
:100F400034400120F0BDB0F86820C36E9205120D48
:100F500042EA93720A61C26EC2F3C2620A75C26E3D
:100F6000C2F302624A75C26EC2F342528A75C26E01
:100F7000C2F38242CA75C26EC2F3C2320A760B69EC
:100F80005B1C43650A7E02F00702921C9340436596
:100F90000A7A02F00F0704FA07F28265520A5343F5
:100FA000C36505660EE090F86820C36E9206920A4B
:100FB00042EA13420A610A69521C93024365C365FF
:100FC0008565056630F86C2FC2F3803201F8192F61
:100FD0000288C2F3C6124A70027802F07F028A7059
:100FE0004268D20FCA704268C2F341720A71426805
:100FF000C2F382624A714268C2F383528A714268C4
:10100000C2F34052CA710E724268C2F300424A7281
:101010008288C2F3C0328A728288C2F38032CA7276
:101020008288C2F340320A738288C2F300324A7364
:101030008288C2F381228A738288C2F30122CA7332
:101040000079C0F3460008744C740020F0BD000025
:10105000FF054000426C0A60826C4A60C26C8A6084
:10106000026DCA60426D0A61826D4A61C26D8A6119
:10107000006EC8610020704738B50446002000901B
:101080006946204601F0CAFB10B1A16B0143A16380
:101090000098C0F3432038BD70B50446002C04D03E
:1010A00094F83400002510B105E0012070BD2577CB
:1010B000204600F05DF8032084F83400204600F05C
:1010C0000BF808B1012070BDA5632563012084F8E9
:1010D0003400002070BD000070B58AB004460025C1
:1010E000294604950591069107910891762009906B
:1010F0000091CDE901100B460A46206800F0EBFE96
:1011000010B101200AB070BD174E3560206800F0A4
:10111000F7FE01253560204601F02AFB30B184F846
:101120003450A16B0143A1630120EBE7204601F09D
:10113000AAFA30B184F83450A16B0143A1630120B5
:10114000E0E74FF40071206800F02EFF48B12268FC
:1011500006499163A16B0143A16384F834500120D7
:10116000D0E70020CEE70000A0802542FF05400028
:10117000F0B587B00446142102A8FFF76BF81D49AB
:101180002068884233D100271B48016841F4006180
:101190000160006800F4006001901748143801688D
:1011A00041F004010160016801F00401019101684E
:1011B00041F008010160006800F0080001904FF460
:1011C000F8500290022603960497032505950C24F7
:1011D000069402A90948FFF719F904200290039622
:1011E00004970595069402A90548FFF70FF907B083
:1011F000F0BD0000002C01404438024000080240CD
:10120000000C02402DE9FF4F87B004460D461646FC
:10121000DDF85080FFF7FEF982465DB194F83400A6
:1012200001280DD0A06B40F00050A06301200BB04E
:10123000BDE8F08FA06B40F00060A0630120F6E7EE
:101240004FF0000BC4F838B00A98E16D3044884282
:1012500005D9A06B40F00070A0630120E7E70320F0
:1012600084F834002068C0F82CB0606C012800D0ED
:1012700076024FF0FF3001900A98400202909020D1
:10128000039002270497CDF814B04FF00109CDF870
:10129000189001A9206800F002FE0A98012805D9DB
:1012A00027633146206800F0DDFE05E0C4F8309089
:1012B0003146206800F0EFFE58B122685949916329
:1012C000A16B0143A16384F83490C4F830B00120CD
:1012D000ADE7029E1CE0406B000410D57EB10027F4
:1012E000206800F015FE2870010A6970010CA970D1
:1012F000000EE8702D1D361F7F1C082FF0D3FFF75E
:1013000089F9A0EB0A00404521D2B8F1000F1ED0A8
:101310002068416B40F22A321142DCD02168496BCF
:10132000C90521D50A9901291ED9616C03291BD051
:1013300000F058FFC0B122683A499163A16B0143A4
:10134000A16384F83490C4F830B001206FE72168BD
:1013500034488863A06B40F00040A06384F8349068
:10136000C4F830B0032062E72068416B09070BD551
:101370002C498163A06B40F00800A06384F834908E
:10138000C4F830B0012052E7416B89070BD52549DD
:101390008163A06B40F00200A06384F83490C4F82D
:1013A00030B0012043E7416B89061FD51D49816399
:1013B000A06B40F02000A06384F83490C4F830B0F3
:1013C000012034E700F0A4FD2870010A6970010CC7
:1013D000A970000EE8702D1D361FFFF71BF9A0EB5A
:1013E0000A00404510D2B8F1000F0DD02068416BC3
:1013F000890201D5002EE5D1216840F23A50886378
:1014000084F83490002012E7216806488863A06BB6
:1014100040F00040A06384F83490C4F830B001205C
:1014200005E70000FF0540002DE9F04F89B00446B4
:101430000E4615469B46FFF7EDF802905EB194F814
:10144000340001280DD0A06B40F00050A0630120B3
:1014500009B0BDE8F08FA06B40F00060A0630120F0
:10146000F6E74FF0000AC4F838A0E16D05EB0B0079
:10147000884205D9A06B40F00070A0630120E7E727
:10148000032084F834002068C0F82CA0606C012888
:1014900000D06D024FF0FF3003904FEA4B200490D4
:1014A00090200590CDF818A0CDF81CA04FF00109B0
:1014B000CDF8209003A9206800F0F1FCBBF1010FEA
:1014C00007D9202020632946206800F0A5FE804629
:1014D00006E0102020632946206800F0B6FE804612
:1014E000B8F1000F0CD0216849488863A06B40EA2E
:1014F0000800A06384F83490C4F830A00120A7E766
:10150000049F24E0406B400418D5BFB1002530781B
:101510000190717840EA01200190B17840EA0140E1
:101520000190F178361D40EA016001903F1F01A94A
:10153000206800F000FD6D1C082DE8D3FFF76AF865
:101540000299411A1298814220D21298F0B1206873
:10155000416B40F21A321142D4D02168496BC9055F
:1015600021D5BBF1010F1ED9616C03291BD000F0FE
:1015700039FEC0B1226826499163A16B0143A16382
:1015800084F83490C4F830A0012061E72168204835
:101590008863A06B40EA0800A06384F83490C4F824
:1015A00030A0032054E72068416B09070BD5184988
:1015B0008163A06B40F00800A06384F83490C4F805
:1015C00030A0012044E7416B89070BD510498163A6
:1015D000A06B40F00200A06384F83490C4F830A0FF
:1015E000012035E7416BC9060BD509498163A06B22
:1015F00040F01000A06384F83490C4F830A00120BB
:1016000026E740F23A51816384F8349000201FE7C6
:10161000FF05400070B50446002C09D0606A002523
:1016200040B125616561A56294F8510040B10CE0BC
:10163000012070BD6068B0F5827FF4D0E561F2E70B
:1016400084F85050204600F045F8022084F85100FC
:101650002068016821F040010160A088218900F420
:10166000827001F404410843A18901F40061084338
:10167000217C01F002010843217D01F001010843B2
:10168000218B01F400710843217F01F038010843E8
:1016900094F8201001F080010843218D01F40051DD
:1016A000084321680860A069042101EA104094F809
:1016B000241001F010010843216848602068C169C6
:1016C00021F40061C1616565012084F851000020AA
:1016D00070BD000010B586B00446142101A8FEF7C5
:1016E000B9FD13492068884220D1002111480268C1
:1016F00042F480520260006800F4805000900D486F
:101700001438026842F001020260006800F0010033
:101710000090E020019002200290039103200490A9
:101720000520059001A90448FEF770FE06B010BD23
:101730000030014044380240000002402DE9F84FDB
:1017400004460A9E8A4693461F4601254FF000082C
:1017500094F8500001280ED0012084F85000FEF7C4
:1017600059FF814694F85100616801280DD0B1F508
:10177000827F07D102E00220BDE8F88FA16809B995
:10178000042802D04FF00208C3E0BAF1000F28D0BD
:10179000BBF1000F25D0380023D094F85100042865
:1017A00002D0052084F8510000206065C4F838B0EC
:1017B000E787A787C4F830A0E786A786206460641F
:1017C00020680168490603D4016841F040010160C6
:1017D000E068B0F5006F07D06068E8B3012F48D02B
:1017E0007DE04FF0010894E0606808B1012F39D125
:1017F000206B21680088C860206B801C2063E08E0D
:10180000401EE0862EE02068816889070DD5E18EB4
:1018100059B1012D09D1216B0988C160206B801C51
:101820002063E08E401EE086002520688168C9079D
:101830000BD0E18F49B1C068A16B0880A06B801C00
:10184000A063E08F401EE0870125FEF7E3FEA0EBDA
:101850000900B04206D300E00BE0701C02D04FF04C
:10186000030856E0E08E0028CDD1E08F0028CAD1D1
:101870003BE0206B216800780873206B401C2063DC
:10188000E08E401EE0862AE02068816889070DD539
:10189000E18E59B1012D09D1216B09780173206BBB
:1018A000401C2063E08E401EE08600252068816891
:1018B000C9070BD0E18F49B1C068A16B0870A06B5C
:1018C000401CA063E08F401EE0870125FEF7A2FECA
:1018D000A0EB0900B04201D3701C11D186B1E08E9B
:1018E0000028D1D1E08F0028CED14A46314620468B
:1018F00001F05EF838B14FF001082020606508E083
:101900004FF0030805E0A06818B92068C168806836
:1019100000900120503460700020207040462BE77A
:101920007047704710B50446002C03D094F83D0072
:1019300010B107E0012010BD002084F83C002046D3
:1019400000F015F8022084F83D00211D206801F008
:1019500019F901203D3460726070A070E070207150
:101960006071A071E07120722070002010BD70477E
:1019700090F83D10012901D001207047022180F824
:101980003D100168CA6842F00102CA60006814494B
:10199000884214D0B0F1804F11D0124988420ED045
:1019A000114988420BD01149884208D01049884219
:1019B00005D01049884202D00F49884209D1816878
:1019C00001F00701062908D0016841F0010101601A
:1019D00003E0016841F00101016000207047000050
:1019E000000001400004004000080040000C0040DE
:1019F000000401400040014000180040704770B5ED
:101A00000446206801694FF00005C943890716D4D0
:101A1000C168C943890712D4E91E016101202077FA
:101A200020688069800703D02046FFF7E7FF05E0C4
:101A3000204600F09BF8204600F099F825772068B2
:101A40000169C943490718D4C168C943490714D477
:101A50006FF004010161022020772068806910F492
:101A6000407F03D02046FFF7C9FF05E0204600F085
:101A70007DF8204600F07BF8257720680169C9438E
:101A8000090717D4C168C943090713D46FF00801C7
:101A90000161042020772068C069800703D02046B8
:101AA000FFF7ACFF05E0204600F060F8204600F0AC
:101AB0005EF8257720680169C943C90618D4C16852
:101AC000C943C90614D46FF01001016108202077C2
:101AD0002068C06910F4407F03D02046FFF78EFFD6
:101AE00005E0204600F042F8204600F040F8257757
:101AF00020680169C943C90708D1C168C943C9073A
:101B000004D1891E0161204600F032F82068016985
:101B1000C943090609D4C168C943090605D46FF051
:101B2000800101612046FFF7FBFE20680169C9437F
:101B3000490609D4C168C943490605D46FF040017C
:101B40000161204600F01EF820680169C94389063A
:101B50000BD4C168C943890607D46FF02001016125
:101B60002046BDE87040FFF7DCBE70BD704770478F
:101B700000680349884201D1FEF752BD704700005A
:101B800000140040704770B50446002C04D094F84F
:101B90003D00002510B106E0012070BD84F83C50E6
:101BA000204600F023F8242084F83D002068C16816
:101BB00021F40051C160204601F04AF82068016913
:101BC00021F4904101612068416921F02A014161BD
:101BD0002068C16841F40051C1602564202084F868
:101BE0003D0084F83E00002070BD000010B586B0B6
:101BF0000446142101A8FEF72DFB144920688842F1
:101C000021D100211248026842F0100202600068EF
:101C100000F0100000900E481438026842F00102F3
:101C20000260006800F0010000904FF4C060019075
:101C3000022002900391032004900720059001A93F
:101C40000448FEF7E3FB06B010BD000000100140A1
:101C500044380240000002402DE9F84304460E4695
:101C600015461F4694F83D00202802D00220BDE80A
:101C7000F883C6B1BDB194F83C00012815D001200D
:101C800084F83C004FF00009C4F84090212084F80B
:101C90003D00FEF7BFFC8046A584E584A068B0F552
:101CA000805F04D005E00120E1E70220DFE7206942
:101CB00020B13546002684F83C9013E00025FAE771
:101CC0004346002280212046009701F04BF808B1DE
:101CD0000320CCE79DB1216815F8010B4860E08C2A
:101CE000401EE084E08C0028EAD1434600224021D7
:101CF0002046009701F036F840B10320B7E736F8E8
:101D0000020B2168C0F308004860E8E7202084F84F
:101D10003D000020ABE7FEE710B504490448FEF79C
:101D20003FFB0249491E087010BD00001200002050
:101D3000A04C00082DE9F04186B0142101A8FEF75F
:101D400089FA00242948016841F080010160016896
:101D500001F080010091016841F00101016001681A
:101D600001F001010091016841F002010160016888
:101D700001F002010091016841F004010160016875
:101D800001F004010091016841F008010160006860
:101D900000F008000090164F002210213846FEF790
:101DA00032FCDFF850804FF40056002231464046A6
:101DB000FEF729FC012501950294039401A93846F8
:101DC000FEF724FB1020019002950394049401A9CE
:101DD0003846FEF71BFB019602950394049401A973
:101DE0004046FEF713FB06B0BDE8F08130380240F4
:101DF000000002400004024006480549016000213D
:101E000041608160C1600161416181617047000092
:101E1000002C01402800002010B510480E49016038
:101E20004FF48271416000218160C16001614161B4
:101E30004FF4007282611022C261016241628162CC
:101E40000A21C162FFF7E6FB002803D0BDE810407D
:101E5000FEF7A4BA10BD000000300140AC00002025
:101E600010B50C480A4901604FF416514160002139
:101E70008160C16001610C2242618161C161FFF733
:101E800082FE002803D0BDE81040FEF787BA10BDDF
:101E90000010014004010020FEE7FEE770470A68D9
:101EA00042624A688262D1E902231A43D1E90431CD
:101EB0000B431A43C16A21F0F7011143C1620020AC
:101EC00070470069C0B27047006800F003007047B7
:101ED0000844406970470FB4DDE901121143DDE9A0
:101EE00003231A431143059A1143069A114342688A
:101EF00047F6FF639A430A434260002004B07047EC
:101F000010B5032101600220FEF76EFA002010BD1B
:101F1000D0F8800070470A688260D1E901231A4333
:101F2000D1E903310B431A43C1686FF30B0111432D
:101F3000C160002070470968C0F880100020704719
:101F400010B586B0044601913721029140210391DA
:101F5000002104914FF48061059101A92046FFF70B
:101F6000DAFF41F288323721204600F09FF906B0AF
:101F700010BD000010B586B004460A4A1143019115
:101F8000292102914021039100210491510D0591D5
:101F900001A92046FFF7BFFF204600F043FA06B034
:101FA00010BD00000000108010B586B004460191FD
:101FB0001021029140210391002104914FF480618E
:101FC000059101A92046FFF7A6FF41F288321021B2
:101FD000204600F06BF906B010BD10B586B004467F
:101FE00001910621029140210391002104914FF4B7
:101FF0008061059101A92046FFF78DFF41F28832EB
:102000000621204600F052F906B010BD10B586B08A
:102010000446002101910291039104914FF48061E3
:10202000059101A92046FFF776FF204600F026F92A
:1020300006B010BD10B586B004464FF4D5710191BD
:102040000821029140210391002104914FF4806105
:10205000059101A92046FFF75EFF204600F04AFAED
:1020600006B010BD10B586B0044601911221029150
:1020700040210391002104914FF48061059101A951
:102080002046FFF748FF41F288321221204600F037
:102090000DF906B010BD10B586B0044601911121AE
:1020A000029140210391002104914FF48061059138
:1020B00001A92046FFF72FFF41F288321121204667
:1020C00000F0F4F806B010BD10B586B004460192D9
:1020D0000721029140210391002104914FF4806077
:1020E000059001A92046FFF716FF41F2883207212B
:1020F000204600F0DBF806B010BD10B586B00446EF
:102100000021019102220292C022039204914FF415
:102110008061059101A92046FFF7FDFE204600F0F1
:1021200057F906B010BD10B586B0044601910921DB
:102130000291C0210391002104914FF48061059127
:1021400001A92046FFF7E7FE204600F041F906B05E
:1021500010BD10B586B004460021019133220292D1
:102160004022039204911101059101A92046FFF735
:10217000D2FE41F288323321204600F097F806B0B3
:1021800010BD10B586B0044601910D210291402189
:102190000391002104914FF48061059101A920462B
:1021A000FFF7B9FE41F288320D21204600F07EF89B
:1021B00006B010BD70B586B006460D4600230193EB
:1021C000032402944024039404932301059301A95A
:1021D0003046FFF7A0FE2A460321304600F044F9BE
:1021E00006B070BD10B586B00446002101910C22E6
:1021F00002924022039204911101059101A9204607
:10220000FFF789FE034A0C21204600F04FF806B084
:1022100010BD000000E1F50510B586B0044601913F
:102220001921029140210391002104914FF4806112
:10223000059101A92046FFF76EFE41F2883219216F
:10224000204600F033F806B010BD10B586B0044645
:1022500001911821029140210391002104914FF432
:102260008061059101A92046FFF755FE41F28832B1
:102270001821204600F01AF806B010BD0A494FF4A4
:10228000FA520968B1FBF2F141F288325143491E1A
:102290004A1C06D0426B1206F9D5C5218163002085
:1022A00070474FF0004070470C00002010B5034607
:1022B00045484FF4FA540068B0FBF4F45443641EEC
:1022C000601C0BD0586B10F0450FF8D00005F6D409
:1022D000586B400705D50420986310BD4FF00040AF
:1022E00010BD586BC00702D00120986310BDC520F7
:1022F00098631846FFF7E5FD884201D0012010BD24
:1023000000211846FFF7E4FD3049084201D10020C2
:1023100010BD002802DA4FF0007010BD410001D559
:10232000402010BD810001D5802010BDC10002D524
:102330004FF4807010BD010102D54FF4007010BD44
:10234000410102D54FF4806010BDC10102D54FF4A8
:10235000006010BD010202D54FF4805010BD410253
:1023600002D54FF4005010BD810202D54FF48040D9
:1023700010BDC10202D54FF4004010BD410302D58B
:102380004FF4003010BD810302D54FF4802010BD02
:10239000C10302D54FF4002010BD010402D54FF453
:1023A000801010BD410402D54FF4001010BD81040F
:1023B00002D54FF4800010BD000702D54FF4000095
:1023C00010BD4FF4803010BD0C00002008E0FFFD70
:1023D00013494FF4FA520968B1FBF2F241F2883125
:1023E0004A43521E511C0CD0416B11F0450FF8D0DE
:1023F0000905F6D4416B490706D504218163042001
:1024000070474FF000407047416BC90703D001216E
:10241000816301207047C52181630020704700005F
:102420000C0000200F494FF4FA520968B1FBF2F298
:1024300041F288314A43521E511C0CD0416B11F0BD
:10244000450FF8D00905F6D4416B490706D504219C
:102450008163042070474FF000407047C5218163BD
:10246000002070470C00002030B5034620484FF490
:10247000FA540068B0FBF4F441F288304443641E1F
:10248000601C0BD0586B10F0450FF8D00005F6D447
:10249000586B400705D50420986330BD4FF00040CD
:1024A00030BD586BC00702D00120986330BD18467C
:1024B000FFF707FD884201D0012030BDC520986399
:1024C00000211846FFF704FD10F4604F04D04104CA
:1024D00006D54FF4005030BD000C1080002030BDF8
:1024E000000402D54FF4805030BD4FF4803030BD31
:1024F0000C00002014494FF4FA520968B1FBF2F2C3
:1025000041F288314A43521E511C0CD0416B11F0EC
:10251000450FF8D00905F6D4416B490706D50421CB
:102520008163042070474FF000407047416BC9073A
:1025300003D00121816301207047416B490601D519
:1025400040218163002070470C00002010B5064C2C
:1025500001202070FDF7D6FE18B9207820F0010088
:102560002070207810BD0000100000202DE9F047F9
:1025700088B004460E46FEF74DF807460025AA46E9
:10258000CDF800A0CDF804A008212068FFF70CFDCD
:1025900000283FD1B4F8500001042068FFF7D0FCB8
:1025A000002837D1401E02904FF00808CDF80C806B
:1025B000302004904FF00209CDF81490CDF818A007
:1025C0000120079002A92068FFF769FC2068FFF747
:1025D000C0FD00281ED1EA4610E0416B890205D5F6
:1025E000FFF796FC4AF825006D1C02E0416B890458
:1025F00009D5FEF70FF8C01B401C0ED02068416BB8
:1026000011F02A0FE9D02168496B090708D5C0F8F5
:102610003880082008B0BDE8F0874FF00040F9E7A7
:10262000416B890703D5C0F838900220F2E7416B6F
:10263000890603D5202181632020EBE740F23A513F
:10264000816301980199000601F47F4140EA01206D
:10265000019901F47F0140EA1120019940EA1160DB
:10266000306000980099000601F47F4140EA0120A3
:10267000009901F47F0140EA1120009940EA1160BD
:1026800070600020C6E710B590B0044601200490A9
:102690002068FFF719FC002854D0606C032819D07B
:1026A0002068FFF72AFD00284AD100212068FFF7A3
:1026B0000FFC606704212068FFF70AFCA06708216F
:1026C0002068FFF705FCE0670C212068FFF700FC9D
:1026D000C4F88000606C032805D004A92068FFF7C7
:1026E00069FD00282CD1606C03281CD0BDF81000B7
:1026F000206501042068FFF716FD002820D1002185
:102700002068FFF7E5FB606604212068FFF7E0FB27
:10271000A06608212068FFF7DBFBE0660C2120683B
:10272000FFF7D6FB206704212068FFF7D1FB000DDF
:10273000E06405A92046FEF7C3FB30B14FF080509E
:1027400010B010BD4FF08060FAE7B4F850000023DD
:1027500002042068FFF7B8FC0028F1D1D4E9051283
:1027600020698DE807000FCCFFF7B5FB0020E7E7F5
:102770002DE9F84F04460027009700260025206821
:10278000FFF744FC002819D12068FFF753FC4FF0F5
:10279000010930B1A7642068FFF738FC00280DD18B
:1027A00001E0C4F84890A06C4FF0805A012807D18E
:1027B00000212068FFF7C4FB10B15046BDE8F88F38
:1027C0004FF6FF7815E000212068FFF7B9FB0028DD
:1027D000F4D111492068FFF7CDFB08B15046EDE771
:1027E00000212068FFF774FB0646F50F0098401C97
:1027F00000900098404501D2002DE4D0009840455B
:1028000002D34FF08070D9E7700002D5C4F844902D
:1028100000E067640020D1E7000010C170B50446F5
:102820000D46002D0ED0B4F8500001042068FFF7CB
:10283000A8FC002805D100212068FFF749FB28608B
:10284000002070BD4FF0006070BD1CB50446002034
:102850000090019000212068FFF73AFB800102D52B
:102860004FF400601CBD69462046FFF77FFE00283C
:10287000F8D10198C0030ED5B4F8500001042068C7
:10288000FFF75EFB0028EDD100212068FFF7A5FBD4
:102890000028E7D11CBD4FF080601CBD1CB504466C
:1028A00000200090019000212068FFF711FB8001BB
:1028B00002D54FF400601CBD69462046FFF756FE66
:1028C0000028F8D1019840030ED5B4F85000010457
:1028D0002068FFF735FB0028EDD102212068FFF7C3
:1028E0007CFB0028E7D11CBD4FF080601CBD0000C0
:1028F00070B50546054C01202070FDF70FFD18B995
:102900002846FFF723FE2070207870BD10000020BD
:1029100010B588B0144614480078C00702D00320D0
:1029200008B010BD39B1012907D002290CD0032904
:1029300011D00420F4E70020F2E76846FDF7DCFC44
:10294000069820600020EBE76846FDF7D5FC079865
:1029500020800020E4E76846FDF7CEFC0798400A97
:1029600020600020DCE7000010000020084610B5C1
:1029700011461A460124A31EFDF7EEFC20B9FDF70F
:10298000C1FC0028FBD10024204610BDFFF7DEBDAE
:10299000084610B511461A460124A31EFDF7ECFCAB
:1029A00020B9FDF7AFFC0028FBD10024204610BD64
:1029B0007CB504461348144D0068B0FBF5F04FF4A5
:1029C0007A75684301906068B0F5827F0DD10B463F
:1029D000009200228021204600F018F878B1606D46
:1029E00040F02000606503207CBD019838B101985B
:1029F000401E019020688068C0430006F5D5002085
:102A00007CBD00000C00002000366E012DE9F8436B
:102A100004460F4691461E46089DFDF7FBFD401BF0
:102A2000351AFDF7F7FD804626480068C0F3CB3025
:102A3000684300903AE0701C38D0FDF7EBFDA0EB46
:102A40000800A84203D215B1009858B32BE02068C3
:102A5000416821F0E00141606068B0F5827F0BD1F0
:102A6000A068B0F5004F02D0B0F5806F04D12068A7
:102A7000016821F040010160A06AB0F5005F09D152
:102A80002068016821F4005101602068016841F468
:102A9000005101600120503460700020207003203C
:102AA000BDE8F88300250098401E009020688068EB
:102AB00037EA000004D000204845BCD10020EFE7F1
:102AC0000120F9E70C0000207047704730B593B043
:102AD000302107A8FDF7BEFB142102A8FDF7BAFBC1
:102AE00000251F48016841F080510160006800F036
:102AF000805001901B48016841F44041016000682A
:102B000000F4404001900224079401200A90102014
:102B10000B900D940E9508200F90B42110911194F4
:102B2000129007A8FDF78AFF08B1FDF737FCFDF703
:102B30002BFE08B1FDF732FC0F20029003940495A0
:102B40004FF4A05005904FF480500690052102A844
:102B5000FDF754FE002801D0FDF720FC13B030BD76
:102B600040380240007000400248016841F47001A2
:102B70000160704788ED00E00148FEF740BF0000AB
:102B8000480100202DE9F0410268264D264E274FCE
:102B9000DFF89CC0274B4FF08048A84209D0404541
:102BA00007D0B04205D0B84203D0604501D098426A
:102BB00003D122F070044A682243A8421BD040454A
:102BC00019D0B04217D0B84215D0604513D0984202
:102BD00011D0194CA0420ED0184CA0420BD0184C6A
:102BE000A04208D0174CA04205D0174CA04202D0FA
:102BF000164CA04203D122F44074CA6822434C69A7
:102C000022F08002224302608A68C2620A688262FD
:102C1000A84201D0984201D10969016301214161B3
:102C2000BDE8F081000001400004004000080040C1
:102C3000000C0040000401400040014000440140FD
:102C40000048014000180040001C004000200040E7
:102C50002DE9F041044620680169E26821F4405101
:102C600011430161A1682069E26901436069104371
:102C700001432068C26849F20C639A430A43C26068
:102C800020684169A26921F44071114341613349CF
:102C90002068884202D03249884202D1FDF788FE7E
:102CA00001E0FDF775FEE16900231927642532264E
:102CB000B1F5004F28D061688B0F8A00A0FB070197
:102CC000FDF790FA0146B0FBF5F07A42504301EB74
:102CD000800006EB0010B0FBF5F000F0F002B1FB55
:102CE000F5F002EB0012B1FBF5F07B42584301EB2B
:102CF000800006EB0010B0FBF5F0216800F00F003B
:102D000010448860BDE8F08161684A18A0FB0701A3
:102D10005B41FDF767FA0146B0FBF5F00201B1FB3C
:102D2000F5F06FF01803584301EB800006EBC0008C
:102D3000B0FBF5F000F0F80002EB4002B1FBF5F05B
:102D4000584301EB800006EBC000B0FBF5F02168B2
:102D500000F0070010448860D4E700000010014034
:102D6000001401402DE9F04104460E4617469846EE
:102D7000069D25E0681C23D02DB1FDF74BFCA0EB90
:102D80000800A8421CD920680C3050E8001F21F42C
:102D9000D07140E80012002AF5D12068143050E8C4
:102DA000001F21F0010140E80012002AF5D1202087
:102DB0003C346070A070002020700320BDE8F081DA
:102DC0002068006836EA000004D00020B842D1D064
:102DD0000020F3E70120F9E7FEE7000010B5114CF1
:102DE000012210212046FDF70EFC00F057F80E4995
:102DF0000880A0F56F41183913D1032000F086F840
:102E0000C0070ED1002210212046FDF7FCFBB720A1
:102E100000F06CF820460122BDE810401021FDF7BB
:102E2000F2BB10BD00000240200000202DE9F0415F
:102E300005460C461646174F002210213846FDF76E
:102E4000E2FB032000F052F813480088A0F56F4120
:102E5000183902D1200E00F049F8C4F3074000F001
:102E600045F8C4F3072000F041F8E0B200F03EF866
:102E7000002405E0FF2000F039F82855641CA4B2B6
:102E8000B442F7D33846BDE8F04101221021FDF7E6
:102E9000BABB0000000002402000002070B50024F2
:102EA000114E002210213046FDF7ADFB902000F0BE
:102EB0001DF8002000F01AF8002000F017F800209C
:102EC00000F014F8FF2000F011F844EA0025FF207C
:102ED00000F00CF840EA0504012210213046FDF70D
:102EE00092FB204670BD00000000024001B582B098
:102EF0004FF47A700090012301AA02A90248FEF75C
:102F00001DFC9DF804000EBDAC00002070B501282A
:102F100018D0022818D0032818D005240C4D002200
:102F200010212846FDF76FFB2046FFF7DFFFFF204B
:102F3000FFF7DCFF0446012210212846FDF763FB62
:102F4000204670BD0524E9E73524E7E71524E5E7C9
:102F50000000024070B5040300F086F800F02AF883
:102F6000124D002210212846FDF74DFB2020FFF7CF
:102F7000BDFF0F480088A0F56F41183902D1200E1F
:102F8000FFF7B4FFC4F30740FFF7B0FFC4F3072017
:102F9000FFF7ACFFE0B2FFF7A9FF0122102128469E
:102FA000FDF731FBBDE8704000F004B800000240BE
:102FB0002000002010B50120FFF7A8FFC007FAD1BC
:102FC00010BD00002DE9F05F80468A461546DFF807
:102FD00094904FEA1A37CAF30B06C6F58054A542FF
:102FE00033D82C4631E0311819F80110FF2903D1EC
:102FF000401C80B2A042F6D3A04214D23846FFF75C
:10300000A9FF002006E0821918F8001009F8021044
:10301000401C80B2A042F6D359464FF48052484635
:1030200000F036F804E022465146404600F030F801
:10303000A54214D07F1C0026A044A244281B85B2C0
:103040004FF48054A54200D82C464FEA073B4FF47A
:10305000805259464846FFF7E9FE0020CAE7BDE81E
:10306000F09F00002022002010B5084C0022102103
:103070002046FDF7C8FA0620FFF738FF2046012258
:10308000BDE810401021FDF7BEBA0000000002406C
:103090002DE9F04107460E461546F0B2C0F58074A2
:1030A000A54200D82C464FF4807807E027442644F8
:1030B000281B85B24446A54200D82C4622463146FC
:1030C000384600F005F8A542F0D1BDE8F0810000D7
:1030D0002DE9F04105460C461646FFF7C5FF174F90
:1030E000002210213846FDF78EFA0220FFF7FEFE7F
:1030F00013480088A0F56F41183902D1200EFFF760
:10310000F5FEC4F30740FFF7F1FEC4F30720FFF715
:10311000EDFEE0B2FFF7EAFE002404E0285DFFF7D1
:10312000E5FE641CA4B2B442F8D301221021384653
:10313000FDF769FABDE8F041FFF73CBF000002402F
:10314000200000200FB4054B10B503A9044A0298D3
:1031500000F028F810BC5DF814FB0000A143000843
:10316000240000200907090E002804DB00F1E020FC
:1031700080F80014704700F00F0000F1E02080F8A4
:10318000141D704702E008C8121F08C1002AFAD1B6
:1031900070477047002001E001C1121F002AFBD1D7
:1031A000704700002DE9FF4F89B09B46044600257B
:1031B00006E025280BD05A460B999047641C6D1CDD
:1031C00020780028F5D10DB02846BDE8F08F002703
:1031D000B8460122474900E0074314F8013F203B6D
:1031E00002FA03F00842F7D120782E2819D114F8FA
:1031F000010F47F004072A280ED06FF02F02207825
:10320000A0F1300109290CD808EB880102EB41013B
:1032100000EB0108641CF2E70A98641C50F8048B68
:103220000A9020780028CED0642808D0692806D0DB
:1032300075281ED05A460B9990476D1C58E00A9984
:103240004FF00A0901C90A91002802DA40422D21F3
:1032500002E0390504D52B218DF82010012103E06F
:10326000F90704D02021F7E78A4608AE0DE00021D7
:10327000FAE70A994FF00A0901C90A91F7E74946A6
:10328000FCF7F3FF303106F8011D0028F7D1ADEB54
:10329000060000F12009780701D44FF00108C84565
:1032A00002DDA8EB090000E000208046002706E0D0
:1032B00008A85A46C05D0B9990476D1C7F1C574566
:1032C000F6DB04E030205A460B9990476D1CB8F1AC
:1032D0000001A8F10108F5DC05E016F8010B5A46DB
:1032E0000B9990476D1CB9F10001A9F10109F4DCBB
:1032F000641C65E70928010010B504460020E07051
:10330000401E2063204601F024FB08B1042010BDBC
:1033100004F2322001F04CF9A0F52A41553901D0D0
:10332000032010BD94F83400E92805D0EB2816D10D
:1033300094F83600902812D104F16A0001F02DF9BA
:103340000849B1EB002F01D1002010BD04F1860027
:1033500001F023F90449884201D1002010BD022068
:1033600010BD0000004641544641543300E0401C6B
:1033700002780AB18A42FAD100787047F0B500228B
:103380001546154E11E006EB02131C685CB1076888
:10339000BC4209D15C688768BC4205D19B6844691E
:1033A000A34204D000E00125521C022AEBD3022ADA
:1033B00001D079B906E01DB9022901D01220F0BD73
:1033C0000020F0BD06EB02108089B0F5807F01D0AF
:1033D0000020F0BD1020F0BDF421002030B5002108
:1033E000054B002403EB01121568854200D11460DF
:1033F000491C0229F6D330BDF42100200368C26ABB
:10340000121D98895B895843B1FBF0F002CA21B1C3
:10341000884204D211680844704700207047401A5F
:10342000121DF3E7891E8269921E8A4201D800208C
:103430007047C26A408901FB002070472DE9F041C6
:1034400080460F46D8F80050002F08D03946404635
:1034500000F0B2FF022809D20120BDE8F0812E69F8
:1034600016B1A869B04207D8012605E0411CF4D086
:10347000A9698142F1D83E463446641CA869A0423D
:1034800004D80224022E01D20020E6E7214640465D
:1034900000F092FF38B10128DFD0411CDDD0B442EA
:1034A000EBD10020D9E74FF0FF36324621462846BF
:1034B00001F069FA28B927B122463946284601F0B9
:1034C00062FA20B101280FD001242046C5E72C6103
:1034D000D5E90501891E884201D8401E6861287916
:1034E00040F001002871F0E73446EEE72DE9F0479F
:1034F0008A46DAF8009000F124070B222021384692
:1035000001F021FA00252E464FF008083046761CBF
:1035100019F80040202C16D92F2C0ED05C2C0CD082
:103520002E2C01D045451BD3B8F10B0F01D02E2C0A
:1035300012D00620BDE8F087761C19F806002F2867
:10354000FAD05C28F8D009EB0600CAF8000095B361
:103550003878E52832D033E008254FF00B08D5E75E
:10356000A4F181007D2815D83046761C19F800009A
:10357000A0F140013F2902D340397F2903D2A8F1AD
:1035800001018D4201D30620D4E7691C7C554D1CF6
:103590007854BBE721460EA0FFF7E8FE08B10620ED
:1035A000C8E7A4F16100192801D8203CE4B22846FC
:1035B0006D1C3C54AAE7FFE70620BBE705203870E6
:1035C000202C01D8042000E00020F8720020B1E790
:1035D000222A2B2C3A3B3C3D3E3F5B5D7C7F00002A
:1035E000401E022810D2094901EB00118889B0F56C
:1035F000807F00D1002008B1401E80B2888108B9C8
:10360000002008600020704702207047F42100204D
:103610002DE9F04105460E462F680021284600F0AE
:10362000F0F888B900243846E96901F092F958B9F0
:10363000296A0A78E52A0CD05AB1002401212846CB
:1036400000F035F80028EED0042800D10720BDE8AE
:10365000F081641CB442F7D0F0E770B504462668E8
:103660000021204600F0CDF800281DD13046E16948
:1036700001F06FF90546B5B9206A0178A9B1C17AA0
:1036800001F03F01A171C17A090705D40B2204F1B1
:10369000240101F043F930B10021204600F007F881
:1036A0000546002DE2D0284670BD0425FBE72DE934
:1036B000F04705460F462C68D5F8148008F120081D
:1036C000E869002802D0B8F5001F02D30420BDE845
:1036D000F087A189B8FBF1F201FB1281002966D1C4
:1036E000401CE861A9694FF0000971B1A0896289A5
:1036F000B8FBF0F0521E104259D1284600F05CFE93
:103700000646012E09D80220E1E72089B0EB581FB8
:103710004DD8C5F81C900420D9E7701C14D0A069BE
:10372000B0423ED897B12846A969FFF787FE064602
:1037300030000FD0012E0FD0701C0FD0204601F0AA
:103740005DFA68B10120C2E70120C0E7C5F81C900E
:103750000420BCE70720BAE70220B8E70120B6E75B
:10376000A289002104F1340001F0EDF80027314670
:103770002046FFF757FE20634FF001090BE084F865
:103780000390204601F03AFA08B101209FE77F1C20
:10379000206B401C20636089B842F0D8206BC01BAE
:1037A0002063AE6131462046FFF73CFEE861C5F874
:1037B0001480A089B8FBF0F100FB11802044343064
:1037C0002862002083E770B5044626680121204660
:1037D000FFF71EFF054695B93046E16901F0B9F8DB
:1037E000054665B920220021206A01F0ACF80B22C1
:1037F00004F12401206A01F09DF80120F0702846B0
:1038000070BD2DE9F04107460E463D68B6F5001F34
:1038100001D2F00602D00220BDE8F0817E61BC68D2
:103820001CB92878032800D3AC6A2CB1B5F80A80FB
:10383000A88908FB00F81AE02889B0EB561F01D8C8
:103840000220E9E7A86AF86118E02146384600F04E
:10385000B3FD0446601C06D0022C02D3A869A04226
:1038600003D80220D8E70120D6E7A6EB0806464594
:10387000EBD221462846FFF7D5FDF861BC61F86917
:1038800070B1A989B6FBF1F10844F861A889B6FBCB
:10389000F0F100FB11602844343038620020BBE7AF
:1038A0000220B9E710B50021084A135C002B0AD1A9
:1038B00001211154111802EB8000097A4068026856
:1038C000084690470146084610BD0000142200201B
:1038D00030B4054B1C1803EB8000247A4068036960
:1038E000204630BC184700001422002030B4054C9C
:1038F000251804EB80002D7A406884682846A44689
:1039000030BC60471422002004490A1801EB8000F3
:10391000127A4068416810460847000014220020CF
:1039200030B4054C251804EB80002D7A4068C4683B
:103930002846A44630BC60471422002000200849D5
:1039400000E0401C022804D201EB00121268002A99
:10395000F7D1022801D001207047002070470000F5
:10396000F421002038B50446204600F034FB00283E
:103970000CD16946204601F06BF9002806D1206978
:10398000FFF72EFE002801D10021216038BD2DE96E
:10399000F84F04460D466946204601F059F9814624
:1039A0005FEA090001D194F81590B9F1000F02D037
:1039B0004846BDE8F88FE76A04F13008002F78D058
:1039C000681C30D0E068A84200D20546A561002DF1
:1039D00052D0691E2046FFF711FDE06101460098B4
:1039E000FFF720FD014689B300986D1E8289B5FB63
:1039F000F2F345896D1E2B405D18A169B1FBF2F30E
:103A000002FB13110029E3D0226AAA42E0D0217DF3
:103A1000090640D5407801234146FFF781FF78B37E
:103A200001206075C5E757F804BB0226A168E9B11B
:103A30008A460025B61C88466D1C204600F0BCFC5A
:103A40000146012903D802206075B2E71CE0481C3A
:103A500013D008F101084145EDD05E4502D820C7DA
:103A600047F804AB009880698842E1D8E06A0660B4
:103A70005E4506D800203860B5E00120607598E703
:103A800005E04FF01109AEE00220607591E7207D5E
:103A900000F07F002075009801232A4640784146B7
:103AA000FFF724FF18B10120607582E701E025626D
:103AB00099E0E068A84203D2217D890700D4054639
:103AC000A0690027A76105B300994E8989894E43F3
:103AD00068B1691E401EB1FBF6F1B0FBF6F29142EF
:103AE00005D3711E8843A0612D1AE1690CE0A1681D
:103AF00049B900212046FFF7A1FC0146012905D064
:103B0000481C06D0A160E16139BB3AE00220607533
:103B10004FE7012060754CE7AD1BA0693044A06100
:103B2000207D800706D52046FFF788FC014629B98D
:103B3000002514E0204600F03FFC0146481C08D058
:103B4000012903D900988069884205D80220607550
:103B50002FE7012060752CE7E161B542DCD8A06950
:103B60002844A06100988289B5FBF2F302FB13524E
:103B70003AB1FFF757FC18B300998989B5FBF1F109
:103B80000F18E168A069884204D9E060217D41F006
:103B90004001217500998A89B0FBF2F302FB130002
:103BA00008B3226ABA421ED0207D00060FD548789D
:103BB00001234146FFF7B4FE28B101206075F8E605
:103BC00002206075F5E6207D00F07F0020750098EA
:103BD00001233A4640784146FFF788FE10B10120A4
:103BE0006075E6E627624846E3E600002DE9F74106
:103BF00081B0164602980090684600F056FC0446D4
:103C0000002C03DA0B2004B0BDE8F0810E4F57F80A
:103C100024504FF0000825B12846FFF7DFFB85F858
:103C200000800198002801D080F8008047F8240027
:103C300001D0012E01D00020E5E7002201A902A851
:103C400000F012FADFE700001C0000202DE9F74326
:103C50008EB00546002D0BD002F03F06324601A97A
:103C60000FA800F001FA04464FF0000824B1E6E086
:103C7000092011B0BDE8F0830198029002A80F99C5
:103C800000F04EFB044620000ED19DF837000006E0
:103C900001D5062408E0700801D0012100E00021D0
:103CA00002A8FFF76BFB044616F01C0F51D06CB155
:103CB000042C08D1FFF742FE20B102A8FFF783FDD4
:103CC000044600E0122446F0080609E09DF80E00C4
:103CD00010F0110F01D0072402E0700700D508246E
:103CE000B4BB300741D500F0DEFB07460A983946E1
:103CF0000E3000F031FF0A983946163000F02CFFE4
:103D00000A992020C8720A99019800F033FC0746EE
:103D100000220A99019800F00BFF0A9800211C303C
:103D200000F01AFF01980121C1708FB1D0F83090D6
:103D30000022394602A800F0BFFE0446200014D13C
:103D40004946019800F005FE044601987F1E076170
:103D50000BE054B99DF80E00C10601D5042404E01F
:103D6000B10702D5C00700D007249CB9300701D5A0
:103D700046F040060198006B68620A98A8627008D5
:103D800001D0012100E0002102A800F0AFFB286172
:103D900000B90224ECBB0A99019800F0EBFBA86083
:103DA0000A981C3000F0F9FBE860C5F82C800198F7
:103DB00028600198C088A8802E7585F81580C5F800
:103DC0002080C5F8188005F130004FF480520021A2
:103DD000814600F0B8FDB00631D5EE68CEB1AE61D7
:103DE0000198478980894743A9680AE0284600F07E
:103DF000E3FA0146012900D80224481C00D101241D
:103E0000F61B0CB9BE42F1D8E96114B90198828958
:103E100000E014E0B6FBF2F302FB13627AB1FFF7A5
:103E200001FB88B101998A89B6FBF2F202442A6249
:103E3000487801234946FFF759FD00B101240CB130
:103E4000C5F80080204614E70224F8E72DE9FC5F5E
:103E500004468846164699460020C9F8000069467F
:103E6000204600F0F5FE002812D1607D00280FD119
:103E7000207DC0070BD0A169E068401A864200D9B6
:103E8000064604F130004FF0010A01909EE0072041
:103E9000BDE8FC9F009AA1699089B1FBF0F300FB9B
:103EA0001313002B73D1B1FBF0F55089401E054070
:103EB000A5B929B1E06A28B12046FFF79FFA05E0CD
:103EC000A06803E02046E16900F076FA022802D2F9
:103ED00002206075DCE7411C1CD0E061E1690098BC
:103EE000FFF7A0FAD0B100EB050B00988189B6FB73
:103EF000F1F74FB34189EA198A4200D94F1B407844
:103F00003B465A464146FFF7F1FC50B184F815A0F4
:103F10000120BDE784F815A00120B9E702206075F3
:103F2000B6E7207D00060BD5206AA0EB0B00B84257
:103F300006D200998A89019900FB028000F0FAFC00
:103F4000009885897D4337E0226A5A451DD0217D3E
:103F500009060DD5407801230199FFF7E1FC18B15E
:103F600084F815A0012093E7207D00F07F002075E4
:103F7000009801235A4640780199FFF7B7FC20B119
:103F800084F815A0012083E701E0C4F820B0009870
:103F9000A1698089B1FBF0F200FB1212851AB542CB
:103FA00000D93546B1FBF0F200FB12100119303197
:103FB0002A46404600F0BEFCA844A0692844A061FF
:103FC000D9F800002844C9F80000761B002E7FF4C1
:103FD00061AF00205CE7F8B504466946204600F072
:103FE00037FE00280ED1217D4A060BD508060ED5D6
:103FF0000098226A0123407804F13001FFF790FC19
:1040000008B10120F8BD207D00F07F00207500F090
:104010004AFA0646616A009800F09BFC0028F1D13C
:10402000A56AE87A40F02000E8722946A268206874
:1040300000F07EFD05F11C00E16800F08DFD3146C9
:1040400005F1160000F088FD002105F1120000F0D6
:104050008BFD00980121C17000F08AFD217D01F0E7
:10406000BF012175F8BD00002DE9FF410E469046C5
:104070000027376000F019FA0546280003D50B2009
:1040800004B0BDE8F081A34850F8254094B13460F5
:1040900008F0FE06207820B16078FFF735FCC107F4
:1040A0000AD02770E8B26070FFF7FCFBC1070AD0A6
:1040B0000320E5E70C20E3E71EB1400701D50A2005
:1040C000DEE70020DCE71EB1400701D50A20D7E774
:1040D000607804F10C020221FFF7FAFB08B101201D
:1040E000CEE7A089A0F50071B1F5606F02D8411E3E
:1040F000084201D00120C3E7002529462046FFF7EA
:10410000FBF802281FD1E84604EB051000F5F97012
:10411000017919B1083000F040FA00E0002048F8B9
:1041200025006D1C042DEFD3002658F8265025B12C
:1041300029462046FFF7E0F800E00320022802D3DA
:10414000761C042EF1D3042803D0022803D30D20BB
:1041500096E7012094E704F13F0000F029FAA189D5
:10416000884201D00D208BE704F14A0000F020FACC
:1041700018B904F1580000F010FAE06194F8448096
:1041800084F80280B8F1010F04D0B8F1020F01D019
:104190000D2075E708FB00F894F84100608110B12C
:1041A000411E084201D00D206AE704F1450000F0ED
:1041B000FFF92081A1894909B0FBF1F201FB12004E
:1041C00008B10D205CE704F1470000F0F1F9064664
:1041D000300004D104F1540000F0DFF9064604F188
:1041E000420000F0E5F9014659B1A0892389400950
:1041F000B3FBF0F001EB08020244964203D20D201B
:104200003EE70D203CE7B01A6689B0FBF6F040B3FC
:1042100003264FF6F57C604500D8022640F6F57C73
:10422000604500D80126801CA06125622944616296
:104230002A44E262032E16D043B34144A162022E07
:1042400026D000F0010100EB400001EB5000A189F5
:10425000401E0844B0FBF1F0E16988421AD90D20F4
:104260000EE70D200CE704F15E0000F0A1F908B1A3
:104270000D2005E7208908B10D2001E704F1600059
:1042800000F08BF9A062A0698000E0E70D20F7E65E
:104290004000DCE74FF0FF3060612061802020713A
:1042A000032E2BD104F1640000F082F9012825D1FE
:1042B000691C204600F04DFB00BB277104F2322040
:1042C00000F076F9A0F52A41553917D104F13400F0
:1042D00000F063F91049884210D104F5067000F02F
:1042E0005CF90E49884209D104F5077000F055F9D0
:1042F000606104F5087000F050F9206126700549EE
:10430000091F0888401C0880E0802046FFF766F8F7
:104310000020B5E61C0000205252614172724161DA
:1043200073B50446256801E0401C019001980178AE
:104330002F29F9D05C29F7D00021A16001980078DD
:10434000202806D2802084F82F002046FFF759FA53
:104350007CBD01A92046FFF7C9F80028F8D1204606
:10436000FFF77BF994F82F1028B10428F0D1490702
:10437000EED405207CBD4907FCD4A079C00601D449
:1043800005207CBDA9896069B0FBF1F201FB120038
:1043900041193431284600F0EDF8A060D9E700005B
:1043A00013B54FF6FF73012269460248FDF754FC2E
:1043B00000981CBD040100202DE9F0410D46046861
:1043C000022D02D3A069A84201D8012609E04FF0CE
:1043D000FF362078012807D0022835D003284AD09C
:1043E00001263046BDE8F08105EB5507A089616ADA
:1043F000B7FBF0F00144204600F0ABFA0028F0D102
:10440000A0893946B1FBF0F200FB121121447F1C58
:1044100091F83480B7FBF0F0616A0144204600F067
:1044200098FA0028DDD1A089B7FBF0F100FB1170EC
:10443000204490F8340048EA0020E90701D006093A
:10444000CFE7C0F30B06CCE7A089616A4008B5FB53
:10445000F0F00144204600F07CFA0028C1D1A18987
:104460006800B0FBF1F201FB12002044343000F090
:104470009FF80646B5E7A089616A8008B5FBF0F0B1
:104480000144204600F065FA0028AAD1A189A800BD
:10449000B0FBF1F201FB12002044343000F07DF853
:1044A00020F070469DE70020704710B504464FF09D
:1044B000FF302368002B0BD0194600E0491C0A7816
:1044C000212A01D33A2AF9D10A783A2A01D00020C8
:1044D00010BD13F8012B303A0A2AF9D28B42F7D1DA
:1044E000002AF5D11046491C216010BDF0B50246E6
:1044F00000201F4D146805EB00131E68A64207D16B
:104500005E689768BE4203D19B685669B34202D089
:10451000401C0228EFD3022814D1002000E0401CE8
:10452000022804D205EB00131B68002BF7D10228E8
:104530000FD005EB00131C6094685C6052699A60B0
:1045400000229A8139B105EB001292891AB100203C
:10455000F0BD0020F0BD11B14FF4807103E005EB18
:1045600000118989491C05EB00129181401CF0BDA6
:10457000F421002070B506460D4605F11A0000F042
:1045800017F804463078032805D105F1140000F02F
:104590000FF844EA0044204670BDC178827842EAB0
:1045A0000121427842EA0121007840EA0120704767
:1045B0004178007840EA012070470000ADF5047DA5
:1045C000FCF736F8FEF782FAFDF7B4FBFDF714FCB2
:1045D000FDF722FCFDF7A0FBFDF742FC00224FF4A3
:1045E00000516348FCF70FF8DFF888B100224FF460
:1045F00080715846FCF707F8FEF7F0FB5EA0FEF767
:10460000A1FD694F4FF400784FF000094FF21E0AE8
:104610004EF20F1601215846FBF7EEFF0128F9D1A3
:1046200062A0FEF78FFD01215846FBF7E5FF002849
:10463000F9D1414604A8FBF70DFECDF80C900025FA
:104640000A24CDF80890CDF8049001225B495C481B
:10465000FFF7CCFA387018B15AA0FEF773FDD9E70E
:104660005FA0FEF76FFD012262A16548FFF7EEFA39
:10467000387040B163A0FEF765FD01224F4900206C
:10468000FFF7B4FAC6E76AA0FEF75CFD03AB42464B
:1046900004A95B48FFF7DAFB38706D1C40B129466E
:1046A0006EA0FEF74FFDCDF80CA03446FF250BE0C1
:1046B000039830B182B2214604A8FEF783FC039828
:1046C000044403984045E1D00398504503D1B442D7
:1046D00001D1FF2D3ED06CA0FEF734FD00214848EB
:1046E000FFF755F90A24002503AB012201A944482C
:1046F000FFF7ACFB38706D1C40B1294657A0FEF7A0
:1047000021FDCDF80CA03446FF2515E0039880B1BB
:104710000122214602A8FEF789FB039804449DF874
:1047200004009DF80810884218D1CDF80490CDF807
:10473000089003980028D7D10398504503D1B4427C
:1047400001D1FF2D06D05BA0FEF7FCFC214661A045
:10475000FEF7F8FC2A48FFF705F98EE7294664A022
:10476000FEF7F0FCCDF80CA03446FF25E4E700008E
:1047700000040240000002403E20B3CCD0F2D5FD40
:10478000B3A3D4CBD0D0A3ACC7EBB0B44B45495FF7
:1047900031B0B4BCFCBDF8D0D0B3CCD0F2434F5054
:1047A000592E2E0A00000000110000203E20B3CC3C
:1047B000D0F2BFAACABC2E2E0A00000012000020B0
:1047C000900100203E205344BFA8B9D2D4D8CAA734
:1047D000B0DCA3ACC7EBD6D8CAD4A3A10A000000B2
:1047E0003E205344BFA8B9D2D4D8B3C9B9A6A3A117
:1047F0000A0000006265696A696E672E62696E0070
:10480000C41100203E20CEC4BCFECEDEB7A8B4F258
:10481000BFAAA3ACC7EBC8B7C8CFCEC4BCFECDEA15
:10482000BAC3BBF2CAC7B7F1B4E6D4DAA3A10A008F
:104830003E20CEC4BCFEB4F2BFAAB3C9B9A6A3A1A0
:10484000BFAACABCBDF8C8EBD0B4C8EBCEC4BCFE8E
:10485000BDD7B6CE2E2E2E0A000000003E20CEC4BC
:10486000BCFEB6C1C8A1B4EDCEF3A3A1B4EDCEF3A6
:10487000B7A2C9FAD4DAB5DA20256420B4CEB6C11D
:10488000C8A1A1A30A0000003E20CEC4BCFED0B443
:10489000C8EBB3C9B9A6A3A1BFAACABCBDF8C8EBEF
:1048A000CEC4BCFED0A3B6D4BDD7B6CE2E2E2E0A13
:1048B000000000003E20CEC4BCFED0A3D1E9B3C9A5
:1048C000B9A6A3A1B1BEB4CED0B4C8EBBDE1CAF8BD
:1048D00021200A003E20666C61736820BDD3CFC2E0
:1048E000C0B4B5C4B5D8D6B7CEAAA3BA25640A0059
:1048F0003E20CEC4BCFED0A3D1E9B4EDCEF3A3A13B
:10490000B4EDCEF3B7A2C9FAD4DAB5DA2025642023
:10491000B4CED0A3D1E9A1A30A00000010B510F8CD
:10492000013B11F8014B1B1B521E01D0002BF6D08E
:10493000184610BD002A05D011F8013B00F8013BD4
:10494000521EF9D17047C9B200F8011B521EFBD1AB
:10495000704770B504460E460025206BB04210D05B
:10496000204600F04BF905465DB9607801233246D8
:1049700004F13401FEF7BAFF10B14FF0FF36012504
:104980002663284670BD2DE9F04704460D461746BC
:104990000226022D4ED3A069A8424BD920784FF0B1
:1049A0000109012804D0022845D0032842D15CE047
:1049B00005EB5508A089616AB8FBF0F00144204678
:1049C000FFF7C7FF0646002E73D14046A18908F1C4
:1049D0000108B0FBF1F201FB120020443430E9077A
:1049E00004D00178FAB262F31F1100E03946017079
:1049F00084F80390A089616AB8FBF0F00144204676
:104A0000FFF7A7FF0646300053D1A089B8FBF0F1AD
:104A100000FB118020443430E90702D0C7F30711AE
:104A200005E00178C7F3032201F0F00111430170A2
:104A300084F803903DE0A089616A4008B5FBF0F07E
:104A400001442046FFF785FF0646300031D1A18999
:104A50006800B0FBF1F201FB120020443430B9B21F
:104A600000F082F884F8039023E0A089616A80084E
:104A7000B5FBF0F001442046FFF76BFF064630001F
:104A800017D1A089AD00B5FBF0F100FB1150204417
:104A90003430FFF782FD67F31B000146A089B5FBA8
:104AA000F0F200FB12502044343000F055F884F846
:104AB00003903046BDE8F0872DE9F0410E460746E9
:104AC00011463C68022E02D3A069B04202D80220EF
:104AD000BDE8F08131B14FF0FF322046FFF753FFC0
:104AE0000028F5D131463846FFF766FC0546280018
:104AF00018D0012D18D0681C18D00022314620464D
:104B0000FFF741FF0028E3D1D4E90510821E91424E
:104B100005D2491C6161217941F0010121712E46C4
:104B2000B042DFD80020D3E70220D1E70120CFE751
:104B300070B506460C461546A9B204F11A0000F0FD
:104B400013F83078032806D1290C04F11400BDE8CD
:104B5000704000F009B870BD0170090A4170090A7F
:104B60008170090AC17070470170090A417070476D
:104B700070B50446204600F041F80546280036D1BD
:104B8000207803282CD12079012829D104F1340080
:104B9000A28900210646FFF7D6FE4AF6552104F207
:104BA0003220FFF7E1FF13493046FFF7D5FF1249E6
:104BB00004F50670FFF7D0FF04F507706169FFF791
:104BC000CBFF04F508702169FFF7C6FF226A521C6B
:104BD0002263607801233146FEF7A2FE0020207197
:104BE000002260781146FEF773FE00B101252846C9
:104BF00070BD000052526141727241612DE9F04175
:104C000004460027E07800281FD0266B04F1340109
:104C10006078012332468846FEF782FE08B10127FC
:104C200013E00020E070606AE169301A88420CD21B
:104C3000A57808E0E06906446078012332464146E1
:104C4000FEF76EFE6D1E022DF4D23846BDE8F081EF
:104C500070B504460E460925002C0DD0206858B1C9
:104C6000017849B1A188C288914205D14078FEF708
:104C70004BFEC00700D100251DB100203060284642
:104C800070BD2068FAE7000000000000000001028B
:104C900003040607080900000000010203040000E5
:104CA000F12800088D2900086D29000891290008C5
:104CB00011290008D44C0008000000202800000042
:104CC00084310008FC4C000828000020F835000062
:104CD00094310008010000001000000000000000F6
:104CE0000024F400010000000000000000000000AB
:0C4CF000000000000000000000000000B8
:04000005080001AD41
:00000001FF
